:100000000C9446000C9463000C9463000C94630001
:100010000C9463000C9463000C9463000C946300D4
:100020000C9463000C9463000C9463000C946300C4
:100030000C9463000C9463000C9463000C946300B4
:100040000C9463000C9463000C9463000C946300A4
:100050000C9463000C9463000C9463000C94630094
:100060000C9463000C9463000C9463000C94630084
:100070000C9463000C9463000C9463000C94630074
:100080000C9463000C9463000C94630011241FBE55
:10009000CFEFD0E1DEBFCDBF11E0A0E0B1E0EEEAEE
:1000A000F3E002C005900D92AA32B107D9F721E022
:1000B000AAE2B1E001C01D92A033B207E1F70E94AD
:1000C00065000C94D5010C9400001BBA8BED8ABB23
:1000D00084E28BBB90EF97BB18BA15BA84B38F66D6
:1000E00084BB86E085BB85B3806985BB81B3806FA7
:1000F00081BB92BB82B18C6F82B983B18C6083B9B2
:1001000080E00E94440180E00E944A0180E00E9459
:10011000500180E00E94560180E00E94680180E06A
:100120000E946E0180E00E94740180E00E947A01CA
:1001300080E00E94800180E00E9486018CE090E0D7
:100140000E948C01EAE2F1E08EE091E093838283E9
:1001500080E091E09183808381E00E9462012FE939
:1001600086E891E0215080409040E1F700C0000017
:1001700080E00E9462012FE986E891E021508040F2
:100180009040E1F700C0000081E00E945C012FE98F
:1001900086E891E0215080409040E1F700C00000E7
:1001A00080E00E945C012FE986E891E021508040C8
:1001B0009040E1F700C0000081E00E9444012FE37D
:1001C0008DE093E0215080409040E1F700C00000B6
:1001D00081E00E944A012FE38DE093E021508040AE
:1001E0009040E1F700C0000081E00E9450012FE341
:1001F0008DE093E0215080409040E1F700C0000086
:1002000081E00E9456012FE38DE093E02150804071
:100210009040E1F700C0000081E00E945C012FE304
:100220008DE093E0215080409040E1F700C0000055
:1002300081E00E9462012FE38DE093E02150804035
:100240009040E1F700C0000080E00E94440180E09F
:100250000E944A0180E00E94500180E00E94560105
:1002600080E00E945C0180E00E9462018CE191E0EC
:100270000E94A5012FE78AE196E02150804090403E
:10028000E1F700C0000098CF811102C0DB9808950B
:10029000DB9A0895811102C0DE980895DE9A0895D0
:1002A000811102C0AE980895AE9A0895811102C0DE
:1002B000AB980895AB9A0895811102C0A99A089548
:1002C000A9980895811102C0AA9A0895AA9808953C
:1002D000811102C0D9980895D99A0895811102C058
:1002E000DC980895DC9A0895811102C0DF98089582
:1002F000DF9A0895811102C0AD980895AD9A0895CE
:10030000811102C0D8980895D89A0895811102C029
:10031000A8980895A89A08959093900089B988E1C3
:100320008AB986E0809395000895CF93C82F8A30CC
:1003300019F48DE00E9495015D9BFECFCCB9CF9161
:1003400008955F9BFECF8CB108950F931F93CF93B9
:10035000DF93E0912C01F0912D01238121FF1BC03F
:100360008C01D0E0C0E0F80181918F0160912C01F7
:1003700070912D01DB011896ED91FC91199788235E
:1003800031F00995892B79F3DFEFCFEFECCF8AE0DD
:100390000995892B19F08FEF9FEF02C08D2F9C2FAD
:0E03A000DF91CF911F910F910895F894FFCF38
:1003AE0000000001000000000000A101000000009C
:1003BE0000020000000095010000000048656C6C12
:0A03CE006F20776F726C642100004D
:00000001FF
