S01700003443485F506F776572537570706C792E7372656355
S11300000C9446000C9463000C9463000C946300FD
S11300100C9463000C9463000C9463000C946300D0
S11300200C9463000C9463000C9463000C946300C0
S11300300C9463000C9463000C9463000C946300B0
S11300400C9463000C9463000C9463000C946300A0
S11300500C9463000C9463000C9463000C94630090
S11300600C9463000C9463000C9463000C94630080
S11300700C9463000C9463000C9463000C94630070
S11300800C9463000C9463000C94630011241FBE51
S1130090CFEFD0E1DEBFCDBF11E0A0E0B1E0E2E8F8
S11300A0FAE002C005900D92A436B107D9F721E019
S11300B0A4E6B1E001C01D92AA36B207E1F70E949E
S11300C0DC000C943F050C940000813041F018F0E2
S11300D0823049F00DC084EA8093740009C084E83A
S11300E08093740005C084E98093740080E00895CF
S11300F0E4E7F0E080818823ECF780917100887F49
S11301000895CF92DF92EF92FF920F931F93CF93B4
S1130110DF93D62EC42EF82EFF0CC2E3D2E003E701
S113012010E06894EE24E2F808C0DE2D01C0DE2D54
S1130130C15019F48D2F90E030C080E00E9465001A
S11301408833B1F3883011F08031D9F4F801F082AA
S113015081E00E946500803241F3883341F38831A5
S113016091F4D092730081E00E946500883269F4B2
S1130170C092730081E00E946500883241F4C1E0BE
S113018007C0C3E005C0C5E003C0C6E001C0C7E0C6
S113019082E00E9465008C2F90E0DF91CF911F9147
S11301A00F91FF90EF90DF90CF900895109271001F
S11301B080E3809370000895C4B714BE1BBA8BED1E
S11301C08ABB84E28BBB90EF97BB18BA15BA84B391
S11301D08F6684BB86E085BB85B3806985BB81B3AC
S11301E0806F81BB92BB82B18C6F82B983B18C600A
S11301F083B980E00E94E30180E00E94E90180E08D
S11302000E94EF0180E00E94F50180E00E94070255
S113021080E00E940D0280E00E94130280E00E94B0
S1130220190280E00E941F0280E00E9425028CE0F7
S113023090E00E942B020E94D600E4E6F1E08EE0FA
S113024091E09383828380E091E091838083C0FF77
S113025004C08CE191E00E945A02C1FF04C088E20C
S113026091E00E945A02C37021F084E391E00E945D
S11302705A0281E00E9401022FE986E891E02150B0
S113028080409040E1F700C0000080E00E9401023D
S11302902FE986E891E0215080409040E1F700C0CA
S11302A0000081E00E94FB012FE986E891E02150E3
S11302B080409040E1F700C0000080E00E94FB0114
S11302C02FE986E891E0215080409040E1F700C09A
S11302D00000CDE4D1E081E00E94E3012FE38DE052
S11302E093E0215080409040E1F700C0000081E09D
S11302F00E94E9012FE38DE093E02150804090407B
S1130300E1F700C0000081E00E94EF012FE38DE0DF
S113031093E0215080409040E1F700C0000081E06C
S11303200E94F5012FE38DE093E02150804090403E
S1130330E1F700C0000081E00E94FB012FE38DE0A3
S113034093E0215080409040E1F700C0000081E03C
S11303500E9401022FE38DE093E021508040904001
S1130360E1F700C0000080E00E94E30180E00E9409
S1130370E90180E00E94EF0180E00E94F50180E045
S11303800E94FB0180E00E94010280E491E00E944F
S11303905A0240EF60E08EE490E00E9481009F9357
S11303A08F93DF93CF930E9444029FE72AE186E074
S11303B0915020408040E1F700C000000F900F9062
S11303C00F900F9088CF811102C0DB980895DB9ABB
S11303D00895811102C0DE980895DE9A089581116E
S11303E002C0AE980895AE9A0895811102C0AB98E8
S11303F00895AB9A0895811102C0A99A0895A99805
S11304000895811102C0AA9A0895AA9808958111A5
S113041002C0D9980895D99A0895811102C0DC9830
S11304200895DC9A0895811102C0DF980895DF9A37
S11304300895811102C0AD980895AD9A089581116F
S113044002C0D8980895D89A0895811102C0A89836
S11304500895A89A08959093900089B988E18AB97B
S113046086E0809395000895CF93C82F8A3019F4BD
S11304708DE00E9434025D9BFECFCCB9CF910895EC
S11304805F9BFECF8CB10895A0E0B0E0EAE4F2E017
S11304900C941805AE014B5F5F4FFA0161917191A5
S11304A0AF0180916601909167010E948A02E2E0A7
S11304B00C9434050F931F93CF93DF93E09166015F
S11304C0F0916701238121FF1BC08C01D0E0C0E0C3
S11304D0F80181918F016091660170916701DB01E0
S11304E01896ED91FC911997882331F00995892B81
S11304F079F3DFEFCFEFECCF8AE00995892B19F080
S11305008FEF9FEF02C08D2F9C2FDF91CF911F9112
S11305100F910895ACE0B0E0E0E9F2E00C94080536
S11305207C016B018A01FC0117821682838181FFA1
S1130530BDC1CE0101964C01F7019381F60193FDF3
S1130540859193FF81916F01882309F4ABC18532B2
S113055039F493FD859193FF81916F01853229F4DC
S1130560B70190E00E947204E7CF512C312C20E0B7
S11305702032A0F48B3269F030F4803259F08332A7
S113058069F420612CC08D3239F0803339F4216054
S113059026C02260246023C0286021C027FD27C014
S11305A030ED380F3A3078F426FF06C0FAE05F9E4B
S11305B0300D1124532E13C08AE0389E300D1124BF
S11305C0332E20620CC08E3221F426FD6BC12064D0
S11305D006C08C3611F4206802C0883641F4F60156
S11305E093FD859193FF81916F018111C1CF982F64
S11305F09F7D9554933028F40C5F1F4FFFE3F983DC
S11306000DC0833631F0833771F0833509F05BC058
S113061022C0F801808189830E5F1F4F44244394D4
S1130620512C540115C03801F2E06F0E711CF80111
S1130630A080B18026FF03C0652D70E002C06FEF7B
S11306407FEFC5012C870E9467042C0183012C8550
S11306502F77222E17C03801F2E06F0E711CF801BB
S1130660A080B18026FF03C0652D70E002C06FEF4B
S11306707FEFC5012C870E945C042C012C85206827
S1130680222E830123FC1BC0832D90E048165906BB
S1130690B0F4B70180E290E00E9472043A94F4CF7F
S11306A0F50127FC859127FE81915F01B70190E058
S11306B00E94720431103A94F1E04F1A5108411427
S11306C0510471F7E5C0843611F0893639F5F80123
S11306D027FF07C060817181828193810C5F1F4F66
S11306E008C060817181072E000C880B990B0E5F86
S11306F01F4F2F76722E97FF09C0909580957095A5
S113070061957F4F8F4F9F4F2068722E2AE030E013
S1130710A4010E94AA04A82EA81844C0853729F46D
S11307202F7EB22E2AE030E025C0F22FF97FBF2EB3
S11307308F36C1F018F4883579F0B4C0803719F0D9
S1130740883721F0AFC02F2F2061B22EB4FE0DC028
S11307508B2D8460B82E09C024FF0AC09F2F966099
S1130760B92E06C028E030E005C020E130E002C028
S113077020E132E0F801B7FE07C060817181828117
S113078093810C5F1F4F06C06081718180E090E00F
S11307900E5F1F4FA4010E94AA04A82EA818FB2DC7
S11307A0FF777F2E76FE0BC0372D3E7FA51450F4C5
S11307B074FE0AC072FC08C0372D3E7E05C0BA2CF8
S11307C0372D03C0BA2C01C0B52C34FF0DC0FE0177
S11307D0EA0DF11D8081803311F4397E09C032FFA6
S11307E006C0B394B39404C0832F867809F0B394FD
S11307F033FD13C030FF06C05A2CB31418F4530C45
S11308005B18B32CB31468F4B70180E290E03C8722
S11308100E947204B3943C85F5CFB31410F43B18D2
S113082001C0312C34FF12C0B70180E390E03C8753
S11308300E9472043C8532FF17C031FD03C088E773
S113084090E002C088E590E0B7010CC0832F867861
S113085059F031FF02C08BE201C080E237FD8DE226
S1130860B70190E00E947204A51438F4B70180E344
S113087090E00E9472045A94F7CFAA94F401EA0D0E
S1130880F11D8081B70190E00E947204A110F5CFA0
S1130890332009F451CEB70180E290E00E94720443
S11308A03A94F6CFF7018681978102C08FEF9FEFCC
S11308B02C96E2E10C942405FC01059061507040F3
S11308C00110D8F7809590958E0F9F1F0895FC0115
S11308D06150704001900110D8F7809590958E0F6B
S11308E09F1F08950F931F93CF93DF93FB012381E1
S11308F021FD03C08FEF9FEF28C022FF16C0468161
S11309005781248135814217530744F4A081B18172
S11309109D012F5F3F4F318320838C932681378144
S11309202F5F3F4F3783268310C0EB01092F182F09
S11309300084F185E02D0995892BE1F68E819F8154
S113094001969F838E83812F902FDF91CF911F91EA
S11309500F910895FA01AA27283051F1203181F12D
S1130960E8946F936E7F6E5F7F4F8F4F9F4FAF4FB3
S1130970B1E03ED0B4E03CD0670F781F891F9A1FC6
S1130980A11D680F791F8A1F911DA11D6A0F711D7A
S1130990811D911DA11D20D009F468943F912AE086
S11309A0269F11243019305D3193DEF6CF0108956E
S11309B0462F4770405D4193B3E00FD0C9F7F6CF9F
S11309C0462F4F70405D4A3318F0495D31FD405267
S11309D0419302D0A9F7EACFB4E0A69597958795FD
S11309E077956795BA95C9F70097610571050895DC
S11309F09B01AC010A2E0694579547953795279588
S1130A00BA95C9F7620F731F841F951FA01D08951F
S1130A102F923F924F925F926F927F928F929F920A
S1130A20AF92BF92CF92DF92EF92FF920F931F93F8
S1130A30CF93DF93CDB7DEB7CA1BDB0B0FB6F894A9
S1130A40DEBF0FBECDBF09942A88398848885F84E9
S1130A506E847D848C849B84AA84B984C884DF805A
S1130A60EE80FD800C811B81AA81B981CE0FD11D3E
S1130A700FB6F894DEBF0FBECDBFED010895F89414
S1050A80FFCFA2
S1130A82000000010000000000004002000000001D
S1130A920002000000003402000000004558542007
S1130AA252455345540A0D00424F44205245534582
S1130AB2540A0D005744542052455345540A0D001C
S1130AC248656C6C6F20776F726C642100693263C5
S1130AD22077726974652072657475726E3A202586
S1070AE2690A000099
S9030000FC
