:100000000C9446000C9450000C9450000C9450003A
:100010000C9450000C9450000C9450000C94500020
:100020000C9450000C9450000C9450000C94500010
:100030000C9450000C9450000C9450000C94500000
:100040000C9450000C9450000C9450000C945000F0
:100050000C9450000C9450000C9450000C945000E0
:100060000C9450000C9450000C9450000C945000D0
:100070000C9450000C9450000C9450000C945000C0
:100080000C9450000C9450000C94500011241FBE8E
:10009000CFEFD0E1DEBFCDBF0E9452000C94E10053
:1000A0000C9400001BBA8BED8ABB84E28BBB90EFF3
:1000B00097BB18BA15BA84B38F6684BB86E085BB3C
:1000C00085B3806985BB81B3806F81BB92BB82B1F0
:1000D0008C6F82B983B18C6083B9AA982FE986E8C6
:1000E00091E0215080409040E1F700C00000AA9AC2
:1000F0002FE986E891E0215080409040E1F700C070
:100100000000A9982FE986E891E0215080409040B6
:10011000E1F700C00000A99A2FE986E891E021509C
:1001200080409040E1F700C00000DB9A2FE38DE0B3
:1001300093E0215080409040E1F700C00000DE9A3B
:100140002FE38DE093E0215080409040E1F700C024
:100150000000AE9A2FE38DE093E021508040904064
:10016000E1F700C00000AB9A2FE38DE093E021504F
:1001700080409040E1F700C00000A9982FE38DE097
:1001800093E0215080409040E1F700C00000AA9821
:100190002FE38DE093E0215080409040E1F700C0D4
:1001A0000000DB98DE98AE98AB98A99AAA9A2FE740
:1001B0008AE196E0215080409040E1F700C00000C5
:0601C000B4CFF894FFCF5C
:00000001FF
